{
  "_format": "hh-sol-artifact-1",
  "contractName": "WalletX",
  "sourceName": "contracts/WalletX.sol",
  "abi": [
    {
      "inputs": [
        {
          "internalType": "address",
          "name": "_tokenAddress",
          "type": "address"
        }
      ],
      "stateMutability": "nonpayable",
      "type": "constructor"
    },
    {
      "inputs": [],
      "name": "InsufficientFunds",
      "type": "error"
    },
    {
      "inputs": [],
      "name": "getMember",
      "outputs": [
        {
          "components": [
            {
              "internalType": "address",
              "name": "memberAddress",
              "type": "address"
            },
            {
              "internalType": "string",
              "name": "organizationName",
              "type": "string"
            },
            {
              "internalType": "string",
              "name": "name",
              "type": "string"
            },
            {
              "internalType": "bool",
              "name": "active",
              "type": "bool"
            },
            {
              "internalType": "uint256",
              "name": "spendLimit",
              "type": "uint256"
            },
            {
              "internalType": "uint256",
              "name": "memberIdentifier",
              "type": "uint256"
            }
          ],
          "internalType": "struct WalletX.WalletMember",
          "name": "member",
          "type": "tuple"
        }
      ],
      "stateMutability": "view",
      "type": "function"
    },
    {
      "inputs": [],
      "name": "getMembers",
      "outputs": [
        {
          "components": [
            {
              "internalType": "address",
              "name": "memberAddress",
              "type": "address"
            },
            {
              "internalType": "string",
              "name": "organizationName",
              "type": "string"
            },
            {
              "internalType": "string",
              "name": "name",
              "type": "string"
            },
            {
              "internalType": "bool",
              "name": "active",
              "type": "bool"
            },
            {
              "internalType": "uint256",
              "name": "spendLimit",
              "type": "uint256"
            },
            {
              "internalType": "uint256",
              "name": "memberIdentifier",
              "type": "uint256"
            }
          ],
          "internalType": "struct WalletX.WalletMember[]",
          "name": "members",
          "type": "tuple[]"
        }
      ],
      "stateMutability": "view",
      "type": "function"
    },
    {
      "inputs": [
        {
          "internalType": "address",
          "name": "_memberAddress",
          "type": "address"
        },
        {
          "internalType": "string",
          "name": "_memberName",
          "type": "string"
        },
        {
          "internalType": "uint256",
          "name": "_fundAmount",
          "type": "uint256"
        },
        {
          "internalType": "uint256",
          "name": "_memberIdentifier",
          "type": "uint256"
        }
      ],
      "name": "onboardMembers",
      "outputs": [],
      "stateMutability": "nonpayable",
      "type": "function"
    },
    {
      "inputs": [
        {
          "internalType": "string",
          "name": "_walletName",
          "type": "string"
        },
        {
          "internalType": "uint256",
          "name": "_fundAmount",
          "type": "uint256"
        }
      ],
      "name": "registerWallet",
      "outputs": [],
      "stateMutability": "nonpayable",
      "type": "function"
    },
    {
      "inputs": [
        {
          "internalType": "uint256",
          "name": "_memberIdentifier",
          "type": "uint256"
        },
        {
          "internalType": "uint256",
          "name": "_amount",
          "type": "uint256"
        }
      ],
      "name": "reimburseMember",
      "outputs": [],
      "stateMutability": "nonpayable",
      "type": "function"
    },
    {
      "inputs": [
        {
          "internalType": "uint256",
          "name": "_amount",
          "type": "uint256"
        }
      ],
      "name": "reimburseOrganization",
      "outputs": [],
      "stateMutability": "nonpayable",
      "type": "function"
    }
  ],
  "bytecode": "0x6080604052600160055534801561001557600080fd5b50604051611f92380380611f9283398181016040528101906100379190610121565b806000806101000a81548173ffffffffffffffffffffffffffffffffffffffff021916908373ffffffffffffffffffffffffffffffffffffffff16021790555033600160006101000a81548173ffffffffffffffffffffffffffffffffffffffff021916908373ffffffffffffffffffffffffffffffffffffffff1602179055505061014e565b600080fd5b600073ffffffffffffffffffffffffffffffffffffffff82169050919050565b60006100ee826100c3565b9050919050565b6100fe816100e3565b811461010957600080fd5b50565b60008151905061011b816100f5565b92915050565b600060208284031215610137576101366100be565b5b60006101458482850161010c565b91505092915050565b611e358061015d6000396000f3fe608060405234801561001057600080fd5b50600436106100625760003560e01c80630274c09414610067578063481f81d0146100855780637b39a7cb146100a15780639eab5253146100bd578063d05e9969146100db578063d18ccf82146100f7575b600080fd5b61006f610113565b60405161007c9190611352565b60405180910390f35b61009f600480360381019061009a91906114e9565b610313565b005b6100bb60048036038101906100b69190611545565b610604565b005b6100c561087b565b6040516100d291906116c4565b60405180910390f35b6100f560048036038101906100f09190611712565b610b56565b005b610111600480360381019061010c9190611795565b610f8b565b005b61011b61116f565b600360003373ffffffffffffffffffffffffffffffffffffffff1673ffffffffffffffffffffffffffffffffffffffff1681526020019081526020016000206040518060c00160405290816000820160009054906101000a900473ffffffffffffffffffffffffffffffffffffffff1673ffffffffffffffffffffffffffffffffffffffff1673ffffffffffffffffffffffffffffffffffffffff1681526020016001820180546101cb90611804565b80601f01602080910402602001604051908101604052809291908181526020018280546101f790611804565b80156102445780601f1061021957610100808354040283529160200191610244565b820191906000526020600020905b81548152906001019060200180831161022757829003601f168201915b5050505050815260200160028201805461025d90611804565b80601f016020809104026020016040519081016040528092919081815260200182805461028990611804565b80156102d65780601f106102ab576101008083540402835291602001916102d6565b820191906000526020600020905b8154815290600101906020018083116102b957829003601f168201915b505050505081526020016003820160009054906101000a900460ff1615151515815260200160048201548152602001600582015481525050905090565b60011515600260003373ffffffffffffffffffffffffffffffffffffffff1673ffffffffffffffffffffffffffffffffffffffff16815260200190815260200160002060010160009054906101000a900460ff161515036103a9576040517f08c379a00000000000000000000000000000000000000000000000000000000081526004016103a0906118b8565b60405180910390fd5b60008060009054906101000a900473ffffffffffffffffffffffffffffffffffffffff1673ffffffffffffffffffffffffffffffffffffffff1663dd62ed3e33306040518363ffffffff1660e01b81526004016104079291906118e7565b602060405180830381865afa158015610424573d6000803e3d6000fd5b505050506040513d601f19601f820116820180604052508101906104489190611925565b905081811461048c576040517f08c379a0000000000000000000000000000000000000000000000000000000008152600401610483906119c4565b60405180910390fd5b60008054906101000a900473ffffffffffffffffffffffffffffffffffffffff1673ffffffffffffffffffffffffffffffffffffffff166323b872dd3330856040518463ffffffff1660e01b81526004016104e9939291906119f3565b6020604051808303816000875af1158015610508573d6000803e3d6000fd5b505050506040513d601f19601f8201168201806040525081019061052c9190611a56565b5060006040518060800160405280858152602001600115158152602001600554815260200184815250905060016005600082825461056a9190611ab2565b9250508190555080600260003373ffffffffffffffffffffffffffffffffffffffff1673ffffffffffffffffffffffffffffffffffffffff16815260200190815260200160002060008201518160000190816105c69190611c92565b5060208201518160010160006101000a81548160ff021916908315150217905550604082015181600201556060820151816003015590505050505050565b60011515600260003373ffffffffffffffffffffffffffffffffffffffff1673ffffffffffffffffffffffffffffffffffffffff16815260200190815260200160002060010160009054906101000a900460ff1615151461069a576040517f08c379a000000000000000000000000000000000000000000000000000000000815260040161069190611db0565b60405180910390fd5b60008060009054906101000a900473ffffffffffffffffffffffffffffffffffffffff1673ffffffffffffffffffffffffffffffffffffffff1663dd62ed3e33306040518363ffffffff1660e01b81526004016106f89291906118e7565b602060405180830381865afa158015610715573d6000803e3d6000fd5b505050506040513d601f19601f820116820180604052508101906107399190611925565b905081811461077d576040517f08c379a0000000000000000000000000000000000000000000000000000000008152600401610774906119c4565b60405180910390fd5b60008054906101000a900473ffffffffffffffffffffffffffffffffffffffff1673ffffffffffffffffffffffffffffffffffffffff166323b872dd3330856040518463ffffffff1660e01b81526004016107da939291906119f3565b6020604051808303816000875af11580156107f9573d6000803e3d6000fd5b505050506040513d601f19601f8201168201806040525081019061081d9190611a56565b5081600260003373ffffffffffffffffffffffffffffffffffffffff1673ffffffffffffffffffffffffffffffffffffffff16815260200190815260200160002060030160008282546108709190611ab2565b925050819055505050565b606060011515600260003373ffffffffffffffffffffffffffffffffffffffff1673ffffffffffffffffffffffffffffffffffffffff16815260200190815260200160002060010160009054906101000a900460ff16151514610913576040517f08c379a000000000000000000000000000000000000000000000000000000000815260040161090a90611db0565b60405180910390fd5b600460003373ffffffffffffffffffffffffffffffffffffffff1673ffffffffffffffffffffffffffffffffffffffff168152602001908152602001600020805480602002602001604051908101604052809291908181526020016000905b82821015610b4d57838290600052602060002090600602016040518060c00160405290816000820160009054906101000a900473ffffffffffffffffffffffffffffffffffffffff1673ffffffffffffffffffffffffffffffffffffffff1673ffffffffffffffffffffffffffffffffffffffff1681526020016001820180546109fb90611804565b80601f0160208091040260200160405190810160405280929190818152602001828054610a2790611804565b8015610a745780601f10610a4957610100808354040283529160200191610a74565b820191906000526020600020905b815481529060010190602001808311610a5757829003601f168201915b50505050508152602001600282018054610a8d90611804565b80601f0160208091040260200160405190810160405280929190818152602001828054610ab990611804565b8015610b065780601f10610adb57610100808354040283529160200191610b06565b820191906000526020600020905b815481529060010190602001808311610ae957829003601f168201915b505050505081526020016003820160009054906101000a900460ff161515151581526020016004820154815260200160058201548152505081526020019060010190610972565b50505050905090565b60011515600260003373ffffffffffffffffffffffffffffffffffffffff1673ffffffffffffffffffffffffffffffffffffffff16815260200190815260200160002060010160009054906101000a900460ff16151514610bec576040517f08c379a0000000000000000000000000000000000000000000000000000000008152600401610be390611db0565b60405180910390fd5b6000600260003373ffffffffffffffffffffffffffffffffffffffff1673ffffffffffffffffffffffffffffffffffffffff1681526020019081526020016000206000018054610c3b90611804565b80601f0160208091040260200160405190810160405280929190818152602001828054610c6790611804565b8015610cb45780601f10610c8957610100808354040283529160200191610cb4565b820191906000526020600020905b815481529060010190602001808311610c9757829003601f168201915b505050505090506000600260003373ffffffffffffffffffffffffffffffffffffffff1673ffffffffffffffffffffffffffffffffffffffff16815260200190815260200160002060030154905083811015610d3c576040517f356680b700000000000000000000000000000000000000000000000000000000815260040160405180910390fd5b60006040518060c001604052808873ffffffffffffffffffffffffffffffffffffffff16815260200184815260200187815260200160011515815260200186815260200185815250905080600360008973ffffffffffffffffffffffffffffffffffffffff1673ffffffffffffffffffffffffffffffffffffffff16815260200190815260200160002060008201518160000160006101000a81548173ffffffffffffffffffffffffffffffffffffffff021916908373ffffffffffffffffffffffffffffffffffffffff1602179055506020820151816001019081610e229190611c92565b506040820151816002019081610e389190611c92565b5060608201518160030160006101000a81548160ff0219169083151502179055506080820151816004015560a08201518160050155905050600460003373ffffffffffffffffffffffffffffffffffffffff1673ffffffffffffffffffffffffffffffffffffffff16815260200190815260200160002081908060018154018082558091505060019003906000526020600020906006020160009091909190915060008201518160000160006101000a81548173ffffffffffffffffffffffffffffffffffffffff021916908373ffffffffffffffffffffffffffffffffffffffff1602179055506020820151816001019081610f359190611c92565b506040820151816002019081610f4b9190611c92565b5060608201518160030160006101000a81548160ff0219169083151502179055506080820151816004015560a08201518160050155505050505050505050565b60011515600260003373ffffffffffffffffffffffffffffffffffffffff1673ffffffffffffffffffffffffffffffffffffffff16815260200190815260200160002060010160009054906101000a900460ff16151514611021576040517f08c379a000000000000000000000000000000000000000000000000000000000815260040161101890611db0565b60405180910390fd5b6000600260003373ffffffffffffffffffffffffffffffffffffffff1673ffffffffffffffffffffffffffffffffffffffff168152602001908152602001600020600301549050818110156110a2576040517f356680b700000000000000000000000000000000000000000000000000000000815260040160405180910390fd5b6000600460003373ffffffffffffffffffffffffffffffffffffffff1673ffffffffffffffffffffffffffffffffffffffff168152602001908152602001600020905060005b8180549050811015611168578482828154811061110857611107611dd0565b5b9060005260206000209060060201600501540361115b578382828154811061113357611132611dd0565b5b906000526020600020906006020160040160008282546111539190611ab2565b925050819055505b80806001019150506110e8565b5050505050565b6040518060c00160405280600073ffffffffffffffffffffffffffffffffffffffff168152602001606081526020016060815260200160001515815260200160008152602001600081525090565b600073ffffffffffffffffffffffffffffffffffffffff82169050919050565b60006111e8826111bd565b9050919050565b6111f8816111dd565b82525050565b600081519050919050565b600082825260208201905092915050565b60005b8381101561123857808201518184015260208101905061121d565b60008484015250505050565b6000601f19601f8301169050919050565b6000611260826111fe565b61126a8185611209565b935061127a81856020860161121a565b61128381611244565b840191505092915050565b60008115159050919050565b6112a38161128e565b82525050565b6000819050919050565b6112bc816112a9565b82525050565b600060c0830160008301516112da60008601826111ef565b50602083015184820360208601526112f28282611255565b9150506040830151848203604086015261130c8282611255565b9150506060830151611321606086018261129a565b50608083015161133460808601826112b3565b5060a083015161134760a08601826112b3565b508091505092915050565b6000602082019050818103600083015261136c81846112c2565b905092915050565b6000604051905090565b600080fd5b600080fd5b600080fd5b600080fd5b7f4e487b7100000000000000000000000000000000000000000000000000000000600052604160045260246000fd5b6113ca82611244565b810181811067ffffffffffffffff821117156113e9576113e8611392565b5b80604052505050565b60006113fc611374565b905061140882826113c1565b919050565b600067ffffffffffffffff82111561142857611427611392565b5b61143182611244565b9050602081019050919050565b82818337600083830152505050565b600061146061145b8461140d565b6113f2565b90508281526020810184848401111561147c5761147b61138d565b5b61148784828561143e565b509392505050565b600082601f8301126114a4576114a3611388565b5b81356114b484826020860161144d565b91505092915050565b6114c6816112a9565b81146114d157600080fd5b50565b6000813590506114e3816114bd565b92915050565b60008060408385031215611500576114ff61137e565b5b600083013567ffffffffffffffff81111561151e5761151d611383565b5b61152a8582860161148f565b925050602061153b858286016114d4565b9150509250929050565b60006020828403121561155b5761155a61137e565b5b6000611569848285016114d4565b91505092915050565b600081519050919050565b600082825260208201905092915050565b6000819050602082019050919050565b600060c0830160008301516115b660008601826111ef565b50602083015184820360208601526115ce8282611255565b915050604083015184820360408601526115e88282611255565b91505060608301516115fd606086018261129a565b50608083015161161060808601826112b3565b5060a083015161162360a08601826112b3565b508091505092915050565b600061163a838361159e565b905092915050565b6000602082019050919050565b600061165a82611572565b611664818561157d565b9350836020820285016116768561158e565b8060005b858110156116b25784840389528151611693858261162e565b945061169e83611642565b925060208a0199505060018101905061167a565b50829750879550505050505092915050565b600060208201905081810360008301526116de818461164f565b905092915050565b6116ef816111dd565b81146116fa57600080fd5b50565b60008135905061170c816116e6565b92915050565b6000806000806080858703121561172c5761172b61137e565b5b600061173a878288016116fd565b945050602085013567ffffffffffffffff81111561175b5761175a611383565b5b6117678782880161148f565b9350506040611778878288016114d4565b9250506060611789878288016114d4565b91505092959194509250565b600080604083850312156117ac576117ab61137e565b5b60006117ba858286016114d4565b92505060206117cb858286016114d4565b9150509250929050565b7f4e487b7100000000000000000000000000000000000000000000000000000000600052602260045260246000fd5b6000600282049050600182168061181c57607f821691505b60208210810361182f5761182e6117d5565b5b50919050565b600082825260208201905092915050565b7f43616e6e6f7420637265617465206d756c7469706c652077616c6c657473207760008201527f697468206f6e652077616c6c6574206164647265737300000000000000000000602082015250565b60006118a2603683611835565b91506118ad82611846565b604082019050919050565b600060208201905081810360008301526118d181611895565b9050919050565b6118e1816111dd565b82525050565b60006040820190506118fc60008301856118d8565b61190960208301846118d8565b9392505050565b60008151905061191f816114bd565b92915050565b60006020828403121561193b5761193a61137e565b5b600061194984828501611910565b91505092915050565b7f4e6f20616c6c6f77616e636520746f207370656e642066756e6473206174207460008201527f6865206d6f6d656e740000000000000000000000000000000000000000000000602082015250565b60006119ae602983611835565b91506119b982611952565b604082019050919050565b600060208201905081810360008301526119dd816119a1565b9050919050565b6119ed816112a9565b82525050565b6000606082019050611a0860008301866118d8565b611a1560208301856118d8565b611a2260408301846119e4565b949350505050565b611a338161128e565b8114611a3e57600080fd5b50565b600081519050611a5081611a2a565b92915050565b600060208284031215611a6c57611a6b61137e565b5b6000611a7a84828501611a41565b91505092915050565b7f4e487b7100000000000000000000000000000000000000000000000000000000600052601160045260246000fd5b6000611abd826112a9565b9150611ac8836112a9565b9250828201905080821115611ae057611adf611a83565b5b92915050565b60008190508160005260206000209050919050565b60006020601f8301049050919050565b600082821b905092915050565b600060088302611b487fffffffffffffffffffffffffffffffffffffffffffffffffffffffffffffffff82611b0b565b611b528683611b0b565b95508019841693508086168417925050509392505050565b6000819050919050565b6000611b8f611b8a611b85846112a9565b611b6a565b6112a9565b9050919050565b6000819050919050565b611ba983611b74565b611bbd611bb582611b96565b848454611b18565b825550505050565b600090565b611bd2611bc5565b611bdd818484611ba0565b505050565b5b81811015611c0157611bf6600082611bca565b600181019050611be3565b5050565b601f821115611c4657611c1781611ae6565b611c2084611afb565b81016020851015611c2f578190505b611c43611c3b85611afb565b830182611be2565b50505b505050565b600082821c905092915050565b6000611c6960001984600802611c4b565b1980831691505092915050565b6000611c828383611c58565b9150826002028217905092915050565b611c9b826111fe565b67ffffffffffffffff811115611cb457611cb3611392565b5b611cbe8254611804565b611cc9828285611c05565b600060209050601f831160018114611cfc5760008415611cea578287015190505b611cf48582611c76565b865550611d5c565b601f198416611d0a86611ae6565b60005b82811015611d3257848901518255600182019150602085019450602081019050611d0d565b86831015611d4f5784890151611d4b601f891682611c58565b8355505b6001600288020188555050505b505050505050565b7f4e6f7420612077616c6c65742061646d696e206163636f756e74000000000000600082015250565b6000611d9a601a83611835565b9150611da582611d64565b602082019050919050565b60006020820190508181036000830152611dc981611d8d565b9050919050565b7f4e487b7100000000000000000000000000000000000000000000000000000000600052603260045260246000fdfea264697066735822122068be044aa102171edfd0e3dd055833a071bb36b37336a8c7a7dcf3fae35d7f3b64736f6c634300081c0033",
  "linkReferences": {},
  "deployedLinkReferences": {}
}