{
  "_format": "hh-sol-artifact-1",
  "contractName": "WalletX",
  "sourceName": "contracts/WalletX.sol",
  "abi": [
    {
      "inputs": [
        {
          "internalType": "address",
          "name": "_tokenAddress",
          "type": "address"
        }
      ],
      "stateMutability": "nonpayable",
      "type": "constructor"
    },
    {
      "inputs": [],
      "name": "InsufficientFunds",
      "type": "error"
    },
    {
      "inputs": [
        {
          "internalType": "address",
          "name": "_userAddress",
          "type": "address"
        }
      ],
      "name": "getAdminRole",
      "outputs": [
        {
          "internalType": "string",
          "name": "userRole",
          "type": "string"
        }
      ],
      "stateMutability": "view",
      "type": "function"
    },
    {
      "inputs": [],
      "name": "getMember",
      "outputs": [
        {
          "components": [
            {
              "internalType": "address",
              "name": "memberAddress",
              "type": "address"
            },
            {
              "internalType": "address",
              "name": "adminAddress",
              "type": "address"
            },
            {
              "internalType": "string",
              "name": "organizationName",
              "type": "string"
            },
            {
              "internalType": "string",
              "name": "name",
              "type": "string"
            },
            {
              "internalType": "bool",
              "name": "active",
              "type": "bool"
            },
            {
              "internalType": "uint256",
              "name": "spendLimit",
              "type": "uint256"
            },
            {
              "internalType": "uint256",
              "name": "memberIdentifier",
              "type": "uint256"
            },
            {
              "internalType": "string",
              "name": "role",
              "type": "string"
            }
          ],
          "internalType": "struct WalletX.WalletMember",
          "name": "member",
          "type": "tuple"
        }
      ],
      "stateMutability": "view",
      "type": "function"
    },
    {
      "inputs": [
        {
          "internalType": "address",
          "name": "_memberAddress",
          "type": "address"
        }
      ],
      "name": "getMemberTransactions",
      "outputs": [
        {
          "components": [
            {
              "internalType": "uint256",
              "name": "amount",
              "type": "uint256"
            },
            {
              "internalType": "address",
              "name": "reciever",
              "type": "address"
            }
          ],
          "internalType": "struct WalletX.memberTransaction[]",
          "name": "memberTxs",
          "type": "tuple[]"
        }
      ],
      "stateMutability": "view",
      "type": "function"
    },
    {
      "inputs": [],
      "name": "getMembers",
      "outputs": [
        {
          "components": [
            {
              "internalType": "address",
              "name": "memberAddress",
              "type": "address"
            },
            {
              "internalType": "address",
              "name": "adminAddress",
              "type": "address"
            },
            {
              "internalType": "string",
              "name": "organizationName",
              "type": "string"
            },
            {
              "internalType": "string",
              "name": "name",
              "type": "string"
            },
            {
              "internalType": "bool",
              "name": "active",
              "type": "bool"
            },
            {
              "internalType": "uint256",
              "name": "spendLimit",
              "type": "uint256"
            },
            {
              "internalType": "uint256",
              "name": "memberIdentifier",
              "type": "uint256"
            },
            {
              "internalType": "string",
              "name": "role",
              "type": "string"
            }
          ],
          "internalType": "struct WalletX.WalletMember[]",
          "name": "members",
          "type": "tuple[]"
        }
      ],
      "stateMutability": "view",
      "type": "function"
    },
    {
      "inputs": [],
      "name": "getWalletAdmin",
      "outputs": [
        {
          "components": [
            {
              "internalType": "address",
              "name": "adminAddress",
              "type": "address"
            },
            {
              "internalType": "string",
              "name": "walletName",
              "type": "string"
            },
            {
              "internalType": "bool",
              "name": "active",
              "type": "bool"
            },
            {
              "internalType": "uint256",
              "name": "walletId",
              "type": "uint256"
            },
            {
              "internalType": "uint256",
              "name": "walletBalance",
              "type": "uint256"
            },
            {
              "internalType": "string",
              "name": "role",
              "type": "string"
            }
          ],
          "internalType": "struct WalletX.WalletOrganisation",
          "name": "admin",
          "type": "tuple"
        }
      ],
      "stateMutability": "view",
      "type": "function"
    },
    {
      "inputs": [
        {
          "internalType": "uint256",
          "name": "_amount",
          "type": "uint256"
        },
        {
          "internalType": "address",
          "name": "_reciever",
          "type": "address"
        }
      ],
      "name": "memberWithdrawal",
      "outputs": [],
      "stateMutability": "nonpayable",
      "type": "function"
    },
    {
      "inputs": [
        {
          "internalType": "address",
          "name": "_memberAddress",
          "type": "address"
        },
        {
          "internalType": "string",
          "name": "_memberName",
          "type": "string"
        },
        {
          "internalType": "uint256",
          "name": "_fundAmount",
          "type": "uint256"
        },
        {
          "internalType": "uint256",
          "name": "_memberIdentifier",
          "type": "uint256"
        }
      ],
      "name": "onboardMembers",
      "outputs": [],
      "stateMutability": "nonpayable",
      "type": "function"
    },
    {
      "inputs": [
        {
          "internalType": "string",
          "name": "_walletName",
          "type": "string"
        },
        {
          "internalType": "uint256",
          "name": "_fundAmount",
          "type": "uint256"
        }
      ],
      "name": "registerWallet",
      "outputs": [],
      "stateMutability": "nonpayable",
      "type": "function"
    },
    {
      "inputs": [
        {
          "internalType": "uint256",
          "name": "_memberIdentifier",
          "type": "uint256"
        },
        {
          "internalType": "uint256",
          "name": "_amount",
          "type": "uint256"
        }
      ],
      "name": "reimburseMember",
      "outputs": [],
      "stateMutability": "nonpayable",
      "type": "function"
    },
    {
      "inputs": [
        {
          "internalType": "uint256",
          "name": "_amount",
          "type": "uint256"
        }
      ],
      "name": "reimburseOrganization",
      "outputs": [],
      "stateMutability": "nonpayable",
      "type": "function"
    }
  ],
  "bytecode": "0x6080604052600160065534801561001557600080fd5b5060405161321838038061321883398181016040528101906100379190610121565b806000806101000a81548173ffffffffffffffffffffffffffffffffffffffff021916908373ffffffffffffffffffffffffffffffffffffffff16021790555033600160006101000a81548173ffffffffffffffffffffffffffffffffffffffff021916908373ffffffffffffffffffffffffffffffffffffffff1602179055505061014e565b600080fd5b600073ffffffffffffffffffffffffffffffffffffffff82169050919050565b60006100ee826100c3565b9050919050565b6100fe816100e3565b811461010957600080fd5b50565b60008151905061011b816100f5565b92915050565b600060208284031215610137576101366100be565b5b60006101458482850161010c565b91505092915050565b6130bb8061015d6000396000f3fe608060405234801561001057600080fd5b506004361061009e5760003560e01c80637b39a7cb116100665780637b39a7cb146101595780639eab525314610175578063a22a53fc14610193578063d05e9969146101b1578063d18ccf82146101cd5761009e565b80630274c094146100a35780630348f07c146100c15780630752e4b6146100f15780632a880b0114610121578063481f81d01461013d575b600080fd5b6100ab6101e9565b6040516100b891906121fb565b60405180910390f35b6100db60048036038101906100d6919061225d565b6104d2565b6040516100e89190612368565b60405180910390f35b61010b6004803603810190610106919061225d565b6105d0565b60405161011891906123d4565b60405180910390f35b61013b60048036038101906101369190612422565b6106a4565b005b61015760048036038101906101529190612597565b610b37565b005b610173600480360381019061016e91906125f3565b610edd565b005b61017d611155565b60405161018a91906127a0565b60405180910390f35b61019b611519565b6040516101a89190612852565b60405180910390f35b6101cb60048036038101906101c69190612874565b6117af565b005b6101e760048036038101906101e291906128f7565b611cf6565b005b6101f1611f77565b600360003373ffffffffffffffffffffffffffffffffffffffff1673ffffffffffffffffffffffffffffffffffffffff168152602001908152602001600020604051806101000160405290816000820160009054906101000a900473ffffffffffffffffffffffffffffffffffffffff1673ffffffffffffffffffffffffffffffffffffffff1673ffffffffffffffffffffffffffffffffffffffff1681526020016001820160009054906101000a900473ffffffffffffffffffffffffffffffffffffffff1673ffffffffffffffffffffffffffffffffffffffff1673ffffffffffffffffffffffffffffffffffffffff1681526020016002820180546102f890612966565b80601f016020809104026020016040519081016040528092919081815260200182805461032490612966565b80156103715780601f1061034657610100808354040283529160200191610371565b820191906000526020600020905b81548152906001019060200180831161035457829003601f168201915b5050505050815260200160038201805461038a90612966565b80601f01602080910402602001604051908101604052809291908181526020018280546103b690612966565b80156104035780601f106103d857610100808354040283529160200191610403565b820191906000526020600020905b8154815290600101906020018083116103e657829003601f168201915b505050505081526020016004820160009054906101000a900460ff16151515158152602001600582015481526020016006820154815260200160078201805461044b90612966565b80601f016020809104026020016040519081016040528092919081815260200182805461047790612966565b80156104c45780601f10610499576101008083540402835291602001916104c4565b820191906000526020600020905b8154815290600101906020018083116104a757829003601f168201915b505050505081525050905090565b6060600560008373ffffffffffffffffffffffffffffffffffffffff1673ffffffffffffffffffffffffffffffffffffffff168152602001908152602001600020805480602002602001604051908101604052809291908181526020016000905b828210156105c55783829060005260206000209060020201604051806040016040529081600082015481526020016001820160009054906101000a900473ffffffffffffffffffffffffffffffffffffffff1673ffffffffffffffffffffffffffffffffffffffff1673ffffffffffffffffffffffffffffffffffffffff168152505081526020019060010190610533565b505050509050919050565b6060600260008373ffffffffffffffffffffffffffffffffffffffff1673ffffffffffffffffffffffffffffffffffffffff168152602001908152602001600020600501805461061f90612966565b80601f016020809104026020016040519081016040528092919081815260200182805461064b90612966565b80156106985780601f1061066d57610100808354040283529160200191610698565b820191906000526020600020905b81548152906001019060200180831161067b57829003601f168201915b50505050509050919050565b6000600360003373ffffffffffffffffffffffffffffffffffffffff1673ffffffffffffffffffffffffffffffffffffffff1681526020019081526020016000209050828160050154101561072e576040517f08c379a0000000000000000000000000000000000000000000000000000000008152600401610725906129e3565b60405180910390fd5b82600260008360010160009054906101000a900473ffffffffffffffffffffffffffffffffffffffff1673ffffffffffffffffffffffffffffffffffffffff1673ffffffffffffffffffffffffffffffffffffffff1681526020019081526020016000206004015410156107d7576040517f08c379a00000000000000000000000000000000000000000000000000000000081526004016107ce90612a4f565b60405180910390fd5b828160050160008282546107eb9190612a9e565b9250508190555082600260008360010160009054906101000a900473ffffffffffffffffffffffffffffffffffffffff1673ffffffffffffffffffffffffffffffffffffffff1673ffffffffffffffffffffffffffffffffffffffff16815260200190815260200160002060040160008282546108689190612a9e565b925050819055506000600460008360010160009054906101000a900473ffffffffffffffffffffffffffffffffffffffff1673ffffffffffffffffffffffffffffffffffffffff1673ffffffffffffffffffffffffffffffffffffffff168152602001908152602001600020905060005b81805490508110156109a5573373ffffffffffffffffffffffffffffffffffffffff1682828154811061090f5761090e612ad2565b5b906000526020600020906008020160000160009054906101000a900473ffffffffffffffffffffffffffffffffffffffff1673ffffffffffffffffffffffffffffffffffffffff160361099857848282815481106109705761096f612ad2565b5b906000526020600020906008020160050160008282546109909190612a9e565b925050819055505b80806001019150506108d9565b5060008054906101000a900473ffffffffffffffffffffffffffffffffffffffff1673ffffffffffffffffffffffffffffffffffffffff1663a9059cbb84866040518363ffffffff1660e01b8152600401610a01929190612b1f565b6020604051808303816000875af1158015610a20573d6000803e3d6000fd5b505050506040513d601f19601f82011682018060405250810190610a449190612b74565b50600060405180604001604052808681526020018573ffffffffffffffffffffffffffffffffffffffff168152509050600560003373ffffffffffffffffffffffffffffffffffffffff1673ffffffffffffffffffffffffffffffffffffffff1681526020019081526020016000208190806001815401808255809150506001900390600052602060002090600202016000909190919091506000820151816000015560208201518160010160006101000a81548173ffffffffffffffffffffffffffffffffffffffff021916908373ffffffffffffffffffffffffffffffffffffffff16021790555050505050505050565b60011515600260003373ffffffffffffffffffffffffffffffffffffffff1673ffffffffffffffffffffffffffffffffffffffff16815260200190815260200160002060020160009054906101000a900460ff16151503610bcd576040517f08c379a0000000000000000000000000000000000000000000000000000000008152600401610bc490612c13565b60405180910390fd5b60008060009054906101000a900473ffffffffffffffffffffffffffffffffffffffff1673ffffffffffffffffffffffffffffffffffffffff1663dd62ed3e33306040518363ffffffff1660e01b8152600401610c2b929190612c33565b602060405180830381865afa158015610c48573d6000803e3d6000fd5b505050506040513d601f19601f82011682018060405250810190610c6c9190612c71565b905081811015610cb1576040517f08c379a0000000000000000000000000000000000000000000000000000000008152600401610ca890612d10565b60405180910390fd5b60008054906101000a900473ffffffffffffffffffffffffffffffffffffffff1673ffffffffffffffffffffffffffffffffffffffff166323b872dd3330856040518463ffffffff1660e01b8152600401610d0e93929190612d30565b6020604051808303816000875af1158015610d2d573d6000803e3d6000fd5b505050506040513d601f19601f82011682018060405250810190610d519190612b74565b5060006040518060c001604052803373ffffffffffffffffffffffffffffffffffffffff16815260200185815260200160011515815260200160065481526020018481526020016040518060400160405280600581526020017f61646d696e0000000000000000000000000000000000000000000000000000008152508152509050600160066000828254610de69190612d67565b9250508190555080600260003373ffffffffffffffffffffffffffffffffffffffff1673ffffffffffffffffffffffffffffffffffffffff16815260200190815260200160002060008201518160000160006101000a81548173ffffffffffffffffffffffffffffffffffffffff021916908373ffffffffffffffffffffffffffffffffffffffff1602179055506020820151816001019081610e899190612f47565b5060408201518160020160006101000a81548160ff021916908315150217905550606082015181600301556080820151816004015560a0820151816005019081610ed39190612f47565b5090505050505050565b60011515600260003373ffffffffffffffffffffffffffffffffffffffff1673ffffffffffffffffffffffffffffffffffffffff16815260200190815260200160002060020160009054906101000a900460ff16151514610f73576040517f08c379a0000000000000000000000000000000000000000000000000000000008152600401610f6a90613065565b60405180910390fd5b60008060009054906101000a900473ffffffffffffffffffffffffffffffffffffffff1673ffffffffffffffffffffffffffffffffffffffff1663dd62ed3e33306040518363ffffffff1660e01b8152600401610fd1929190612c33565b602060405180830381865afa158015610fee573d6000803e3d6000fd5b505050506040513d601f19601f820116820180604052508101906110129190612c71565b905081811015611057576040517f08c379a000000000000000000000000000000000000000000000000000000000815260040161104e90612d10565b60405180910390fd5b60008054906101000a900473ffffffffffffffffffffffffffffffffffffffff1673ffffffffffffffffffffffffffffffffffffffff166323b872dd3330856040518463ffffffff1660e01b81526004016110b493929190612d30565b6020604051808303816000875af11580156110d3573d6000803e3d6000fd5b505050506040513d601f19601f820116820180604052508101906110f79190612b74565b5081600260003373ffffffffffffffffffffffffffffffffffffffff1673ffffffffffffffffffffffffffffffffffffffff168152602001908152602001600020600401600082825461114a9190612d67565b925050819055505050565b606060011515600260003373ffffffffffffffffffffffffffffffffffffffff1673ffffffffffffffffffffffffffffffffffffffff16815260200190815260200160002060020160009054906101000a900460ff161515146111ed576040517f08c379a00000000000000000000000000000000000000000000000000000000081526004016111e490613065565b60405180910390fd5b600460003373ffffffffffffffffffffffffffffffffffffffff1673ffffffffffffffffffffffffffffffffffffffff168152602001908152602001600020805480602002602001604051908101604052809291908181526020016000905b828210156115105783829060005260206000209060080201604051806101000160405290816000820160009054906101000a900473ffffffffffffffffffffffffffffffffffffffff1673ffffffffffffffffffffffffffffffffffffffff1673ffffffffffffffffffffffffffffffffffffffff1681526020016001820160009054906101000a900473ffffffffffffffffffffffffffffffffffffffff1673ffffffffffffffffffffffffffffffffffffffff1673ffffffffffffffffffffffffffffffffffffffff16815260200160028201805461132c90612966565b80601f016020809104026020016040519081016040528092919081815260200182805461135890612966565b80156113a55780601f1061137a576101008083540402835291602001916113a5565b820191906000526020600020905b81548152906001019060200180831161138857829003601f168201915b505050505081526020016003820180546113be90612966565b80601f01602080910402602001604051908101604052809291908181526020018280546113ea90612966565b80156114375780601f1061140c57610100808354040283529160200191611437565b820191906000526020600020905b81548152906001019060200180831161141a57829003601f168201915b505050505081526020016004820160009054906101000a900460ff16151515158152602001600582015481526020016006820154815260200160078201805461147f90612966565b80601f01602080910402602001604051908101604052809291908181526020018280546114ab90612966565b80156114f85780601f106114cd576101008083540402835291602001916114f8565b820191906000526020600020905b8154815290600101906020018083116114db57829003601f168201915b5050505050815250508152602001906001019061124c565b50505050905090565b611521611fea565b60011515600260003373ffffffffffffffffffffffffffffffffffffffff1673ffffffffffffffffffffffffffffffffffffffff16815260200190815260200160002060020160009054906101000a900460ff161515146115b7576040517f08c379a00000000000000000000000000000000000000000000000000000000081526004016115ae90613065565b60405180910390fd5b600260003373ffffffffffffffffffffffffffffffffffffffff1673ffffffffffffffffffffffffffffffffffffffff1681526020019081526020016000206040518060c00160405290816000820160009054906101000a900473ffffffffffffffffffffffffffffffffffffffff1673ffffffffffffffffffffffffffffffffffffffff1673ffffffffffffffffffffffffffffffffffffffff16815260200160018201805461166790612966565b80601f016020809104026020016040519081016040528092919081815260200182805461169390612966565b80156116e05780601f106116b5576101008083540402835291602001916116e0565b820191906000526020600020905b8154815290600101906020018083116116c357829003601f168201915b505050505081526020016002820160009054906101000a900460ff16151515158152602001600382015481526020016004820154815260200160058201805461172890612966565b80601f016020809104026020016040519081016040528092919081815260200182805461175490612966565b80156117a15780601f10611776576101008083540402835291602001916117a1565b820191906000526020600020905b81548152906001019060200180831161178457829003601f168201915b505050505081525050905090565b60011515600260003373ffffffffffffffffffffffffffffffffffffffff1673ffffffffffffffffffffffffffffffffffffffff16815260200190815260200160002060020160009054906101000a900460ff16151514611845576040517f08c379a000000000000000000000000000000000000000000000000000000000815260040161183c90613065565b60405180910390fd5b6000600260003373ffffffffffffffffffffffffffffffffffffffff1673ffffffffffffffffffffffffffffffffffffffff168152602001908152602001600020600101805461189490612966565b80601f01602080910402602001604051908101604052809291908181526020018280546118c090612966565b801561190d5780601f106118e25761010080835404028352916020019161190d565b820191906000526020600020905b8154815290600101906020018083116118f057829003601f168201915b505050505090506000600260003373ffffffffffffffffffffffffffffffffffffffff1673ffffffffffffffffffffffffffffffffffffffff16815260200190815260200160002060040154905083811015611995576040517f356680b700000000000000000000000000000000000000000000000000000000815260040160405180910390fd5b60006040518061010001604052808873ffffffffffffffffffffffffffffffffffffffff1681526020013373ffffffffffffffffffffffffffffffffffffffff1681526020018481526020018781526020016001151581526020018681526020018581526020016040518060400160405280600681526020017f6d656d6265720000000000000000000000000000000000000000000000000000815250815250905080600360008973ffffffffffffffffffffffffffffffffffffffff1673ffffffffffffffffffffffffffffffffffffffff16815260200190815260200160002060008201518160000160006101000a81548173ffffffffffffffffffffffffffffffffffffffff021916908373ffffffffffffffffffffffffffffffffffffffff16021790555060208201518160010160006101000a81548173ffffffffffffffffffffffffffffffffffffffff021916908373ffffffffffffffffffffffffffffffffffffffff1602179055506040820151816002019081611b1a9190612f47565b506060820151816003019081611b309190612f47565b5060808201518160040160006101000a81548160ff02191690831515021790555060a0820151816005015560c0820151816006015560e0820151816007019081611b7a9190612f47565b50905050600460003373ffffffffffffffffffffffffffffffffffffffff1673ffffffffffffffffffffffffffffffffffffffff16815260200190815260200160002081908060018154018082558091505060019003906000526020600020906008020160009091909190915060008201518160000160006101000a81548173ffffffffffffffffffffffffffffffffffffffff021916908373ffffffffffffffffffffffffffffffffffffffff16021790555060208201518160010160006101000a81548173ffffffffffffffffffffffffffffffffffffffff021916908373ffffffffffffffffffffffffffffffffffffffff1602179055506040820151816002019081611c8a9190612f47565b506060820151816003019081611ca09190612f47565b5060808201518160040160006101000a81548160ff02191690831515021790555060a0820151816005015560c0820151816006015560e0820151816007019081611cea9190612f47565b50505050505050505050565b60011515600260003373ffffffffffffffffffffffffffffffffffffffff1673ffffffffffffffffffffffffffffffffffffffff16815260200190815260200160002060020160009054906101000a900460ff16151514611d8c576040517f08c379a0000000000000000000000000000000000000000000000000000000008152600401611d8390613065565b60405180910390fd5b6000600260003373ffffffffffffffffffffffffffffffffffffffff1673ffffffffffffffffffffffffffffffffffffffff16815260200190815260200160002060040154905081811015611e0d576040517f356680b700000000000000000000000000000000000000000000000000000000815260040160405180910390fd5b6000600460003373ffffffffffffffffffffffffffffffffffffffff1673ffffffffffffffffffffffffffffffffffffffff168152602001908152602001600020905060005b8180549050811015611f705784828281548110611e7357611e72612ad2565b5b90600052602060002090600802016006015403611f635783828281548110611e9e57611e9d612ad2565b5b90600052602060002090600802016005016000828254611ebe9190612d67565b925050819055508360036000848481548110611edd57611edc612ad2565b5b906000526020600020906008020160000160009054906101000a900473ffffffffffffffffffffffffffffffffffffffff1673ffffffffffffffffffffffffffffffffffffffff1673ffffffffffffffffffffffffffffffffffffffff1681526020019081526020016000206005016000828254611f5b9190612d67565b925050819055505b8080600101915050611e53565b5050505050565b604051806101000160405280600073ffffffffffffffffffffffffffffffffffffffff168152602001600073ffffffffffffffffffffffffffffffffffffffff16815260200160608152602001606081526020016000151581526020016000815260200160008152602001606081525090565b6040518060c00160405280600073ffffffffffffffffffffffffffffffffffffffff168152602001606081526020016000151581526020016000815260200160008152602001606081525090565b600073ffffffffffffffffffffffffffffffffffffffff82169050919050565b600061206382612038565b9050919050565b61207381612058565b82525050565b600081519050919050565b600082825260208201905092915050565b60005b838110156120b3578082015181840152602081019050612098565b60008484015250505050565b6000601f19601f8301169050919050565b60006120db82612079565b6120e58185612084565b93506120f5818560208601612095565b6120fe816120bf565b840191505092915050565b60008115159050919050565b61211e81612109565b82525050565b6000819050919050565b61213781612124565b82525050565b600061010083016000830151612156600086018261206a565b506020830151612169602086018261206a565b506040830151848203604086015261218182826120d0565b9150506060830151848203606086015261219b82826120d0565b91505060808301516121b06080860182612115565b5060a08301516121c360a086018261212e565b5060c08301516121d660c086018261212e565b5060e083015184820360e08601526121ee82826120d0565b9150508091505092915050565b60006020820190508181036000830152612215818461213d565b905092915050565b6000604051905090565b600080fd5b600080fd5b61223a81612058565b811461224557600080fd5b50565b60008135905061225781612231565b92915050565b60006020828403121561227357612272612227565b5b600061228184828501612248565b91505092915050565b600081519050919050565b600082825260208201905092915050565b6000819050602082019050919050565b6040820160008201516122cc600085018261212e565b5060208201516122df602085018261206a565b50505050565b60006122f183836122b6565b60408301905092915050565b6000602082019050919050565b60006123158261228a565b61231f8185612295565b935061232a836122a6565b8060005b8381101561235b57815161234288826122e5565b975061234d836122fd565b92505060018101905061232e565b5085935050505092915050565b60006020820190508181036000830152612382818461230a565b905092915050565b600082825260208201905092915050565b60006123a682612079565b6123b0818561238a565b93506123c0818560208601612095565b6123c9816120bf565b840191505092915050565b600060208201905081810360008301526123ee818461239b565b905092915050565b6123ff81612124565b811461240a57600080fd5b50565b60008135905061241c816123f6565b92915050565b6000806040838503121561243957612438612227565b5b60006124478582860161240d565b925050602061245885828601612248565b9150509250929050565b600080fd5b600080fd5b7f4e487b7100000000000000000000000000000000000000000000000000000000600052604160045260246000fd5b6124a4826120bf565b810181811067ffffffffffffffff821117156124c3576124c261246c565b5b80604052505050565b60006124d661221d565b90506124e2828261249b565b919050565b600067ffffffffffffffff8211156125025761250161246c565b5b61250b826120bf565b9050602081019050919050565b82818337600083830152505050565b600061253a612535846124e7565b6124cc565b90508281526020810184848401111561255657612555612467565b5b612561848285612518565b509392505050565b600082601f83011261257e5761257d612462565b5b813561258e848260208601612527565b91505092915050565b600080604083850312156125ae576125ad612227565b5b600083013567ffffffffffffffff8111156125cc576125cb61222c565b5b6125d885828601612569565b92505060206125e98582860161240d565b9150509250929050565b60006020828403121561260957612608612227565b5b60006126178482850161240d565b91505092915050565b600081519050919050565b600082825260208201905092915050565b6000819050602082019050919050565b600061010083016000830151612665600086018261206a565b506020830151612678602086018261206a565b506040830151848203604086015261269082826120d0565b915050606083015184820360608601526126aa82826120d0565b91505060808301516126bf6080860182612115565b5060a08301516126d260a086018261212e565b5060c08301516126e560c086018261212e565b5060e083015184820360e08601526126fd82826120d0565b9150508091505092915050565b6000612716838361264c565b905092915050565b6000602082019050919050565b600061273682612620565b612740818561262b565b9350836020820285016127528561263c565b8060005b8581101561278e578484038952815161276f858261270a565b945061277a8361271e565b925060208a01995050600181019050612756565b50829750879550505050505092915050565b600060208201905081810360008301526127ba818461272b565b905092915050565b600060c0830160008301516127da600086018261206a565b50602083015184820360208601526127f282826120d0565b91505060408301516128076040860182612115565b50606083015161281a606086018261212e565b50608083015161282d608086018261212e565b5060a083015184820360a086015261284582826120d0565b9150508091505092915050565b6000602082019050818103600083015261286c81846127c2565b905092915050565b6000806000806080858703121561288e5761288d612227565b5b600061289c87828801612248565b945050602085013567ffffffffffffffff8111156128bd576128bc61222c565b5b6128c987828801612569565b93505060406128da8782880161240d565b92505060606128eb8782880161240d565b91505092959194509250565b6000806040838503121561290e5761290d612227565b5b600061291c8582860161240d565b925050602061292d8582860161240d565b9150509250929050565b7f4e487b7100000000000000000000000000000000000000000000000000000000600052602260045260246000fd5b6000600282049050600182168061297e57607f821691505b60208210810361299157612990612937565b5b50919050565b7f696e73756666696369656e742066756e647320746f2077697468647261770000600082015250565b60006129cd601e8361238a565b91506129d882612997565b602082019050919050565b600060208201905081810360008301526129fc816129c0565b9050919050565b7f496e73756666696369656e742066756e647320696e2077616c6c657400000000600082015250565b6000612a39601c8361238a565b9150612a4482612a03565b602082019050919050565b60006020820190508181036000830152612a6881612a2c565b9050919050565b7f4e487b7100000000000000000000000000000000000000000000000000000000600052601160045260246000fd5b6000612aa982612124565b9150612ab483612124565b9250828203905081811115612acc57612acb612a6f565b5b92915050565b7f4e487b7100000000000000000000000000000000000000000000000000000000600052603260045260246000fd5b612b0a81612058565b82525050565b612b1981612124565b82525050565b6000604082019050612b346000830185612b01565b612b416020830184612b10565b9392505050565b612b5181612109565b8114612b5c57600080fd5b50565b600081519050612b6e81612b48565b92915050565b600060208284031215612b8a57612b89612227565b5b6000612b9884828501612b5f565b91505092915050565b7f43616e6e6f7420637265617465206d756c7469706c652077616c6c657473207760008201527f697468206f6e652077616c6c6574206164647265737300000000000000000000602082015250565b6000612bfd60368361238a565b9150612c0882612ba1565b604082019050919050565b60006020820190508181036000830152612c2c81612bf0565b9050919050565b6000604082019050612c486000830185612b01565b612c556020830184612b01565b9392505050565b600081519050612c6b816123f6565b92915050565b600060208284031215612c8757612c86612227565b5b6000612c9584828501612c5c565b91505092915050565b7f4e6f20616c6c6f77616e636520746f207370656e642066756e6473206174207460008201527f6865206d6f6d656e740000000000000000000000000000000000000000000000602082015250565b6000612cfa60298361238a565b9150612d0582612c9e565b604082019050919050565b60006020820190508181036000830152612d2981612ced565b9050919050565b6000606082019050612d456000830186612b01565b612d526020830185612b01565b612d5f6040830184612b10565b949350505050565b6000612d7282612124565b9150612d7d83612124565b9250828201905080821115612d9557612d94612a6f565b5b92915050565b60008190508160005260206000209050919050565b60006020601f8301049050919050565b600082821b905092915050565b600060088302612dfd7fffffffffffffffffffffffffffffffffffffffffffffffffffffffffffffffff82612dc0565b612e078683612dc0565b95508019841693508086168417925050509392505050565b6000819050919050565b6000612e44612e3f612e3a84612124565b612e1f565b612124565b9050919050565b6000819050919050565b612e5e83612e29565b612e72612e6a82612e4b565b848454612dcd565b825550505050565b600090565b612e87612e7a565b612e92818484612e55565b505050565b5b81811015612eb657612eab600082612e7f565b600181019050612e98565b5050565b601f821115612efb57612ecc81612d9b565b612ed584612db0565b81016020851015612ee4578190505b612ef8612ef085612db0565b830182612e97565b50505b505050565b600082821c905092915050565b6000612f1e60001984600802612f00565b1980831691505092915050565b6000612f378383612f0d565b9150826002028217905092915050565b612f5082612079565b67ffffffffffffffff811115612f6957612f6861246c565b5b612f738254612966565b612f7e828285612eba565b600060209050601f831160018114612fb15760008415612f9f578287015190505b612fa98582612f2b565b865550613011565b601f198416612fbf86612d9b565b60005b82811015612fe757848901518255600182019150602085019450602081019050612fc2565b868310156130045784890151613000601f891682612f0d565b8355505b6001600288020188555050505b505050505050565b7f4e6f7420612077616c6c65742061646d696e206163636f756e74000000000000600082015250565b600061304f601a8361238a565b915061305a82613019565b602082019050919050565b6000602082019050818103600083015261307e81613042565b905091905056fea264697066735822122024570ebaa2552b8ca3ada4166d78ad0581b42bba5811066bef3150aa1f39df3e64736f6c634300081c0033",
  "linkReferences": {},
  "deployedLinkReferences": {}
}