{
  "_format": "hh-sol-artifact-1",
  "contractName": "WalletX",
  "sourceName": "contracts/WalletX.sol",
  "abi": [
    {
      "inputs": [
        {
          "internalType": "address",
          "name": "_tokenAddress",
          "type": "address"
        }
      ],
      "stateMutability": "nonpayable",
      "type": "constructor"
    },
    {
      "inputs": [],
      "name": "InsufficientFunds",
      "type": "error"
    },
    {
      "inputs": [
        {
          "internalType": "address",
          "name": "_userAddress",
          "type": "address"
        }
      ],
      "name": "getAdminRole",
      "outputs": [
        {
          "internalType": "string",
          "name": "userRole",
          "type": "string"
        }
      ],
      "stateMutability": "view",
      "type": "function"
    },
    {
      "inputs": [],
      "name": "getMember",
      "outputs": [
        {
          "components": [
            {
              "internalType": "address",
              "name": "memberAddress",
              "type": "address"
            },
            {
              "internalType": "string",
              "name": "organizationName",
              "type": "string"
            },
            {
              "internalType": "string",
              "name": "name",
              "type": "string"
            },
            {
              "internalType": "bool",
              "name": "active",
              "type": "bool"
            },
            {
              "internalType": "uint256",
              "name": "spendLimit",
              "type": "uint256"
            },
            {
              "internalType": "uint256",
              "name": "memberIdentifier",
              "type": "uint256"
            },
            {
              "internalType": "string",
              "name": "role",
              "type": "string"
            }
          ],
          "internalType": "struct WalletX.WalletMember",
          "name": "member",
          "type": "tuple"
        }
      ],
      "stateMutability": "view",
      "type": "function"
    },
    {
      "inputs": [],
      "name": "getMemberTransactions",
      "outputs": [
        {
          "components": [
            {
              "internalType": "uint256",
              "name": "amount",
              "type": "uint256"
            },
            {
              "internalType": "address",
              "name": "reciever",
              "type": "address"
            }
          ],
          "internalType": "struct WalletX.memberTransaction[]",
          "name": "memberTxs",
          "type": "tuple[]"
        }
      ],
      "stateMutability": "view",
      "type": "function"
    },
    {
      "inputs": [],
      "name": "getMembers",
      "outputs": [
        {
          "components": [
            {
              "internalType": "address",
              "name": "memberAddress",
              "type": "address"
            },
            {
              "internalType": "string",
              "name": "organizationName",
              "type": "string"
            },
            {
              "internalType": "string",
              "name": "name",
              "type": "string"
            },
            {
              "internalType": "bool",
              "name": "active",
              "type": "bool"
            },
            {
              "internalType": "uint256",
              "name": "spendLimit",
              "type": "uint256"
            },
            {
              "internalType": "uint256",
              "name": "memberIdentifier",
              "type": "uint256"
            },
            {
              "internalType": "string",
              "name": "role",
              "type": "string"
            }
          ],
          "internalType": "struct WalletX.WalletMember[]",
          "name": "members",
          "type": "tuple[]"
        }
      ],
      "stateMutability": "view",
      "type": "function"
    },
    {
      "inputs": [],
      "name": "getWalletAdmin",
      "outputs": [
        {
          "components": [
            {
              "internalType": "address",
              "name": "adminAddress",
              "type": "address"
            },
            {
              "internalType": "string",
              "name": "walletName",
              "type": "string"
            },
            {
              "internalType": "bool",
              "name": "active",
              "type": "bool"
            },
            {
              "internalType": "uint256",
              "name": "walletId",
              "type": "uint256"
            },
            {
              "internalType": "uint256",
              "name": "walletBalance",
              "type": "uint256"
            },
            {
              "internalType": "string",
              "name": "role",
              "type": "string"
            }
          ],
          "internalType": "struct WalletX.WalletOrganisation",
          "name": "admin",
          "type": "tuple"
        }
      ],
      "stateMutability": "view",
      "type": "function"
    },
    {
      "inputs": [
        {
          "internalType": "uint256",
          "name": "_amount",
          "type": "uint256"
        },
        {
          "internalType": "address",
          "name": "_reciever",
          "type": "address"
        }
      ],
      "name": "memberWithdrawal",
      "outputs": [],
      "stateMutability": "nonpayable",
      "type": "function"
    },
    {
      "inputs": [
        {
          "internalType": "address",
          "name": "_memberAddress",
          "type": "address"
        },
        {
          "internalType": "string",
          "name": "_memberName",
          "type": "string"
        },
        {
          "internalType": "uint256",
          "name": "_fundAmount",
          "type": "uint256"
        },
        {
          "internalType": "uint256",
          "name": "_memberIdentifier",
          "type": "uint256"
        }
      ],
      "name": "onboardMembers",
      "outputs": [],
      "stateMutability": "nonpayable",
      "type": "function"
    },
    {
      "inputs": [
        {
          "internalType": "string",
          "name": "_walletName",
          "type": "string"
        },
        {
          "internalType": "uint256",
          "name": "_fundAmount",
          "type": "uint256"
        }
      ],
      "name": "registerWallet",
      "outputs": [],
      "stateMutability": "nonpayable",
      "type": "function"
    },
    {
      "inputs": [
        {
          "internalType": "uint256",
          "name": "_memberIdentifier",
          "type": "uint256"
        },
        {
          "internalType": "uint256",
          "name": "_amount",
          "type": "uint256"
        }
      ],
      "name": "reimburseMember",
      "outputs": [],
      "stateMutability": "nonpayable",
      "type": "function"
    },
    {
      "inputs": [
        {
          "internalType": "uint256",
          "name": "_amount",
          "type": "uint256"
        }
      ],
      "name": "reimburseOrganization",
      "outputs": [],
      "stateMutability": "nonpayable",
      "type": "function"
    }
  ],
  "bytecode": "0x6080604052600160065534801561001557600080fd5b50604051612cfe380380612cfe83398181016040528101906100379190610121565b806000806101000a81548173ffffffffffffffffffffffffffffffffffffffff021916908373ffffffffffffffffffffffffffffffffffffffff16021790555033600160006101000a81548173ffffffffffffffffffffffffffffffffffffffff021916908373ffffffffffffffffffffffffffffffffffffffff1602179055505061014e565b600080fd5b600073ffffffffffffffffffffffffffffffffffffffff82169050919050565b60006100ee826100c3565b9050919050565b6100fe816100e3565b811461010957600080fd5b50565b60008151905061011b816100f5565b92915050565b600060208284031215610137576101366100be565b5b60006101458482850161010c565b91505092915050565b612ba18061015d6000396000f3fe608060405234801561001057600080fd5b506004361061009e5760003560e01c80639eab5253116100665780639eab525314610145578063a22a53fc14610163578063d05e996914610181578063d18ccf821461019d578063ea144166146101b95761009e565b80630274c094146100a35780630752e4b6146100c15780632a880b01146100f1578063481f81d01461010d5780637b39a7cb14610129575b600080fd5b6100ab6101d7565b6040516100b89190611d61565b60405180910390f35b6100db60048036038101906100d69190611dc3565b610469565b6040516100e89190611e3a565b60405180910390f35b61010b60048036038101906101069190611e88565b61053d565b005b61012760048036038101906101229190611ffd565b610772565b005b610143600480360381019061013e9190612059565b610b18565b005b61014d610d90565b60405161015a91906121f2565b60405180910390f35b61016b6110fd565b60405161017891906122a4565b60405180910390f35b61019b600480360381019061019691906122c6565b611393565b005b6101b760048036038101906101b29190612349565b61182f565b005b6101c1611a13565b6040516101ce9190612467565b60405180910390f35b6101df611b0f565b600360003373ffffffffffffffffffffffffffffffffffffffff1673ffffffffffffffffffffffffffffffffffffffff1681526020019081526020016000206040518060e00160405290816000820160009054906101000a900473ffffffffffffffffffffffffffffffffffffffff1673ffffffffffffffffffffffffffffffffffffffff1673ffffffffffffffffffffffffffffffffffffffff16815260200160018201805461028f906124b8565b80601f01602080910402602001604051908101604052809291908181526020018280546102bb906124b8565b80156103085780601f106102dd57610100808354040283529160200191610308565b820191906000526020600020905b8154815290600101906020018083116102eb57829003601f168201915b50505050508152602001600282018054610321906124b8565b80601f016020809104026020016040519081016040528092919081815260200182805461034d906124b8565b801561039a5780601f1061036f5761010080835404028352916020019161039a565b820191906000526020600020905b81548152906001019060200180831161037d57829003601f168201915b505050505081526020016003820160009054906101000a900460ff1615151515815260200160048201548152602001600582015481526020016006820180546103e2906124b8565b80601f016020809104026020016040519081016040528092919081815260200182805461040e906124b8565b801561045b5780601f106104305761010080835404028352916020019161045b565b820191906000526020600020905b81548152906001019060200180831161043e57829003601f168201915b505050505081525050905090565b6060600260008373ffffffffffffffffffffffffffffffffffffffff1673ffffffffffffffffffffffffffffffffffffffff16815260200190815260200160002060050180546104b8906124b8565b80601f01602080910402602001604051908101604052809291908181526020018280546104e4906124b8565b80156105315780601f1061050657610100808354040283529160200191610531565b820191906000526020600020905b81548152906001019060200180831161051457829003601f168201915b50505050509050919050565b6000600360003373ffffffffffffffffffffffffffffffffffffffff1673ffffffffffffffffffffffffffffffffffffffff168152602001908152602001600020905082816004015410156105c7576040517f08c379a00000000000000000000000000000000000000000000000000000000081526004016105be90612535565b60405180910390fd5b828160040160008282546105db9190612584565b9250508190555060008054906101000a900473ffffffffffffffffffffffffffffffffffffffff1673ffffffffffffffffffffffffffffffffffffffff1663a9059cbb83856040518363ffffffff1660e01b815260040161063d9291906125d6565b6020604051808303816000875af115801561065c573d6000803e3d6000fd5b505050506040513d601f19601f82011682018060405250810190610680919061262b565b50600060405180604001604052808581526020018473ffffffffffffffffffffffffffffffffffffffff168152509050600560003373ffffffffffffffffffffffffffffffffffffffff1673ffffffffffffffffffffffffffffffffffffffff1681526020019081526020016000208190806001815401808255809150506001900390600052602060002090600202016000909190919091506000820151816000015560208201518160010160006101000a81548173ffffffffffffffffffffffffffffffffffffffff021916908373ffffffffffffffffffffffffffffffffffffffff160217905550505050505050565b60011515600260003373ffffffffffffffffffffffffffffffffffffffff1673ffffffffffffffffffffffffffffffffffffffff16815260200190815260200160002060020160009054906101000a900460ff16151503610808576040517f08c379a00000000000000000000000000000000000000000000000000000000081526004016107ff906126ca565b60405180910390fd5b60008060009054906101000a900473ffffffffffffffffffffffffffffffffffffffff1673ffffffffffffffffffffffffffffffffffffffff1663dd62ed3e33306040518363ffffffff1660e01b81526004016108669291906126ea565b602060405180830381865afa158015610883573d6000803e3d6000fd5b505050506040513d601f19601f820116820180604052508101906108a79190612728565b9050818110156108ec576040517f08c379a00000000000000000000000000000000000000000000000000000000081526004016108e3906127c7565b60405180910390fd5b60008054906101000a900473ffffffffffffffffffffffffffffffffffffffff1673ffffffffffffffffffffffffffffffffffffffff166323b872dd3330856040518463ffffffff1660e01b8152600401610949939291906127e7565b6020604051808303816000875af1158015610968573d6000803e3d6000fd5b505050506040513d601f19601f8201168201806040525081019061098c919061262b565b5060006040518060c001604052803373ffffffffffffffffffffffffffffffffffffffff16815260200185815260200160011515815260200160065481526020018481526020016040518060400160405280600581526020017f61646d696e0000000000000000000000000000000000000000000000000000008152508152509050600160066000828254610a21919061281e565b9250508190555080600260003373ffffffffffffffffffffffffffffffffffffffff1673ffffffffffffffffffffffffffffffffffffffff16815260200190815260200160002060008201518160000160006101000a81548173ffffffffffffffffffffffffffffffffffffffff021916908373ffffffffffffffffffffffffffffffffffffffff1602179055506020820151816001019081610ac491906129fe565b5060408201518160020160006101000a81548160ff021916908315150217905550606082015181600301556080820151816004015560a0820151816005019081610b0e91906129fe565b5090505050505050565b60011515600260003373ffffffffffffffffffffffffffffffffffffffff1673ffffffffffffffffffffffffffffffffffffffff16815260200190815260200160002060020160009054906101000a900460ff16151514610bae576040517f08c379a0000000000000000000000000000000000000000000000000000000008152600401610ba590612b1c565b60405180910390fd5b60008060009054906101000a900473ffffffffffffffffffffffffffffffffffffffff1673ffffffffffffffffffffffffffffffffffffffff1663dd62ed3e33306040518363ffffffff1660e01b8152600401610c0c9291906126ea565b602060405180830381865afa158015610c29573d6000803e3d6000fd5b505050506040513d601f19601f82011682018060405250810190610c4d9190612728565b905081811015610c92576040517f08c379a0000000000000000000000000000000000000000000000000000000008152600401610c89906127c7565b60405180910390fd5b60008054906101000a900473ffffffffffffffffffffffffffffffffffffffff1673ffffffffffffffffffffffffffffffffffffffff166323b872dd3330856040518463ffffffff1660e01b8152600401610cef939291906127e7565b6020604051808303816000875af1158015610d0e573d6000803e3d6000fd5b505050506040513d601f19601f82011682018060405250810190610d32919061262b565b5081600260003373ffffffffffffffffffffffffffffffffffffffff1673ffffffffffffffffffffffffffffffffffffffff1681526020019081526020016000206004016000828254610d85919061281e565b925050819055505050565b606060011515600260003373ffffffffffffffffffffffffffffffffffffffff1673ffffffffffffffffffffffffffffffffffffffff16815260200190815260200160002060020160009054906101000a900460ff16151514610e28576040517f08c379a0000000000000000000000000000000000000000000000000000000008152600401610e1f90612b1c565b60405180910390fd5b600460003373ffffffffffffffffffffffffffffffffffffffff1673ffffffffffffffffffffffffffffffffffffffff168152602001908152602001600020805480602002602001604051908101604052809291908181526020016000905b828210156110f457838290600052602060002090600702016040518060e00160405290816000820160009054906101000a900473ffffffffffffffffffffffffffffffffffffffff1673ffffffffffffffffffffffffffffffffffffffff1673ffffffffffffffffffffffffffffffffffffffff168152602001600182018054610f10906124b8565b80601f0160208091040260200160405190810160405280929190818152602001828054610f3c906124b8565b8015610f895780601f10610f5e57610100808354040283529160200191610f89565b820191906000526020600020905b815481529060010190602001808311610f6c57829003601f168201915b50505050508152602001600282018054610fa2906124b8565b80601f0160208091040260200160405190810160405280929190818152602001828054610fce906124b8565b801561101b5780601f10610ff05761010080835404028352916020019161101b565b820191906000526020600020905b815481529060010190602001808311610ffe57829003601f168201915b505050505081526020016003820160009054906101000a900460ff161515151581526020016004820154815260200160058201548152602001600682018054611063906124b8565b80601f016020809104026020016040519081016040528092919081815260200182805461108f906124b8565b80156110dc5780601f106110b1576101008083540402835291602001916110dc565b820191906000526020600020905b8154815290600101906020018083116110bf57829003601f168201915b50505050508152505081526020019060010190610e87565b50505050905090565b611105611b64565b60011515600260003373ffffffffffffffffffffffffffffffffffffffff1673ffffffffffffffffffffffffffffffffffffffff16815260200190815260200160002060020160009054906101000a900460ff1615151461119b576040517f08c379a000000000000000000000000000000000000000000000000000000000815260040161119290612b1c565b60405180910390fd5b600260003373ffffffffffffffffffffffffffffffffffffffff1673ffffffffffffffffffffffffffffffffffffffff1681526020019081526020016000206040518060c00160405290816000820160009054906101000a900473ffffffffffffffffffffffffffffffffffffffff1673ffffffffffffffffffffffffffffffffffffffff1673ffffffffffffffffffffffffffffffffffffffff16815260200160018201805461124b906124b8565b80601f0160208091040260200160405190810160405280929190818152602001828054611277906124b8565b80156112c45780601f10611299576101008083540402835291602001916112c4565b820191906000526020600020905b8154815290600101906020018083116112a757829003601f168201915b505050505081526020016002820160009054906101000a900460ff16151515158152602001600382015481526020016004820154815260200160058201805461130c906124b8565b80601f0160208091040260200160405190810160405280929190818152602001828054611338906124b8565b80156113855780601f1061135a57610100808354040283529160200191611385565b820191906000526020600020905b81548152906001019060200180831161136857829003601f168201915b505050505081525050905090565b60011515600260003373ffffffffffffffffffffffffffffffffffffffff1673ffffffffffffffffffffffffffffffffffffffff16815260200190815260200160002060020160009054906101000a900460ff16151514611429576040517f08c379a000000000000000000000000000000000000000000000000000000000815260040161142090612b1c565b60405180910390fd5b6000600260003373ffffffffffffffffffffffffffffffffffffffff1673ffffffffffffffffffffffffffffffffffffffff1681526020019081526020016000206001018054611478906124b8565b80601f01602080910402602001604051908101604052809291908181526020018280546114a4906124b8565b80156114f15780601f106114c6576101008083540402835291602001916114f1565b820191906000526020600020905b8154815290600101906020018083116114d457829003601f168201915b505050505090506000600260003373ffffffffffffffffffffffffffffffffffffffff1673ffffffffffffffffffffffffffffffffffffffff16815260200190815260200160002060040154905083811015611579576040517f356680b700000000000000000000000000000000000000000000000000000000815260040160405180910390fd5b60006040518060e001604052808873ffffffffffffffffffffffffffffffffffffffff1681526020018481526020018781526020016001151581526020018681526020018581526020016040518060400160405280600681526020017f6d656d6265720000000000000000000000000000000000000000000000000000815250815250905080600360008973ffffffffffffffffffffffffffffffffffffffff1673ffffffffffffffffffffffffffffffffffffffff16815260200190815260200160002060008201518160000160006101000a81548173ffffffffffffffffffffffffffffffffffffffff021916908373ffffffffffffffffffffffffffffffffffffffff160217905550602082015181600101908161169a91906129fe565b5060408201518160020190816116b091906129fe565b5060608201518160030160006101000a81548160ff0219169083151502179055506080820151816004015560a0820151816005015560c08201518160060190816116fa91906129fe565b50905050600460003373ffffffffffffffffffffffffffffffffffffffff1673ffffffffffffffffffffffffffffffffffffffff16815260200190815260200160002081908060018154018082558091505060019003906000526020600020906007020160009091909190915060008201518160000160006101000a81548173ffffffffffffffffffffffffffffffffffffffff021916908373ffffffffffffffffffffffffffffffffffffffff16021790555060208201518160010190816117c391906129fe565b5060408201518160020190816117d991906129fe565b5060608201518160030160006101000a81548160ff0219169083151502179055506080820151816004015560a0820151816005015560c082015181600601908161182391906129fe565b50505050505050505050565b60011515600260003373ffffffffffffffffffffffffffffffffffffffff1673ffffffffffffffffffffffffffffffffffffffff16815260200190815260200160002060020160009054906101000a900460ff161515146118c5576040517f08c379a00000000000000000000000000000000000000000000000000000000081526004016118bc90612b1c565b60405180910390fd5b6000600260003373ffffffffffffffffffffffffffffffffffffffff1673ffffffffffffffffffffffffffffffffffffffff16815260200190815260200160002060040154905081811015611946576040517f356680b700000000000000000000000000000000000000000000000000000000815260040160405180910390fd5b6000600460003373ffffffffffffffffffffffffffffffffffffffff1673ffffffffffffffffffffffffffffffffffffffff168152602001908152602001600020905060005b8180549050811015611a0c57848282815481106119ac576119ab612b3c565b5b906000526020600020906007020160050154036119ff57838282815481106119d7576119d6612b3c565b5b906000526020600020906007020160040160008282546119f7919061281e565b925050819055505b808060010191505061198c565b5050505050565b6060600560003373ffffffffffffffffffffffffffffffffffffffff1673ffffffffffffffffffffffffffffffffffffffff168152602001908152602001600020805480602002602001604051908101604052809291908181526020016000905b82821015611b065783829060005260206000209060020201604051806040016040529081600082015481526020016001820160009054906101000a900473ffffffffffffffffffffffffffffffffffffffff1673ffffffffffffffffffffffffffffffffffffffff1673ffffffffffffffffffffffffffffffffffffffff168152505081526020019060010190611a74565b50505050905090565b6040518060e00160405280600073ffffffffffffffffffffffffffffffffffffffff16815260200160608152602001606081526020016000151581526020016000815260200160008152602001606081525090565b6040518060c00160405280600073ffffffffffffffffffffffffffffffffffffffff168152602001606081526020016000151581526020016000815260200160008152602001606081525090565b600073ffffffffffffffffffffffffffffffffffffffff82169050919050565b6000611bdd82611bb2565b9050919050565b611bed81611bd2565b82525050565b600081519050919050565b600082825260208201905092915050565b60005b83811015611c2d578082015181840152602081019050611c12565b60008484015250505050565b6000601f19601f8301169050919050565b6000611c5582611bf3565b611c5f8185611bfe565b9350611c6f818560208601611c0f565b611c7881611c39565b840191505092915050565b60008115159050919050565b611c9881611c83565b82525050565b6000819050919050565b611cb181611c9e565b82525050565b600060e083016000830151611ccf6000860182611be4565b5060208301518482036020860152611ce78282611c4a565b91505060408301518482036040860152611d018282611c4a565b9150506060830151611d166060860182611c8f565b506080830151611d296080860182611ca8565b5060a0830151611d3c60a0860182611ca8565b5060c083015184820360c0860152611d548282611c4a565b9150508091505092915050565b60006020820190508181036000830152611d7b8184611cb7565b905092915050565b6000604051905090565b600080fd5b600080fd5b611da081611bd2565b8114611dab57600080fd5b50565b600081359050611dbd81611d97565b92915050565b600060208284031215611dd957611dd8611d8d565b5b6000611de784828501611dae565b91505092915050565b600082825260208201905092915050565b6000611e0c82611bf3565b611e168185611df0565b9350611e26818560208601611c0f565b611e2f81611c39565b840191505092915050565b60006020820190508181036000830152611e548184611e01565b905092915050565b611e6581611c9e565b8114611e7057600080fd5b50565b600081359050611e8281611e5c565b92915050565b60008060408385031215611e9f57611e9e611d8d565b5b6000611ead85828601611e73565b9250506020611ebe85828601611dae565b9150509250929050565b600080fd5b600080fd5b7f4e487b7100000000000000000000000000000000000000000000000000000000600052604160045260246000fd5b611f0a82611c39565b810181811067ffffffffffffffff82111715611f2957611f28611ed2565b5b80604052505050565b6000611f3c611d83565b9050611f488282611f01565b919050565b600067ffffffffffffffff821115611f6857611f67611ed2565b5b611f7182611c39565b9050602081019050919050565b82818337600083830152505050565b6000611fa0611f9b84611f4d565b611f32565b905082815260208101848484011115611fbc57611fbb611ecd565b5b611fc7848285611f7e565b509392505050565b600082601f830112611fe457611fe3611ec8565b5b8135611ff4848260208601611f8d565b91505092915050565b6000806040838503121561201457612013611d8d565b5b600083013567ffffffffffffffff81111561203257612031611d92565b5b61203e85828601611fcf565b925050602061204f85828601611e73565b9150509250929050565b60006020828403121561206f5761206e611d8d565b5b600061207d84828501611e73565b91505092915050565b600081519050919050565b600082825260208201905092915050565b6000819050602082019050919050565b600060e0830160008301516120ca6000860182611be4565b50602083015184820360208601526120e28282611c4a565b915050604083015184820360408601526120fc8282611c4a565b91505060608301516121116060860182611c8f565b5060808301516121246080860182611ca8565b5060a083015161213760a0860182611ca8565b5060c083015184820360c086015261214f8282611c4a565b9150508091505092915050565b600061216883836120b2565b905092915050565b6000602082019050919050565b600061218882612086565b6121928185612091565b9350836020820285016121a4856120a2565b8060005b858110156121e057848403895281516121c1858261215c565b94506121cc83612170565b925060208a019950506001810190506121a8565b50829750879550505050505092915050565b6000602082019050818103600083015261220c818461217d565b905092915050565b600060c08301600083015161222c6000860182611be4565b50602083015184820360208601526122448282611c4a565b91505060408301516122596040860182611c8f565b50606083015161226c6060860182611ca8565b50608083015161227f6080860182611ca8565b5060a083015184820360a08601526122978282611c4a565b9150508091505092915050565b600060208201905081810360008301526122be8184612214565b905092915050565b600080600080608085870312156122e0576122df611d8d565b5b60006122ee87828801611dae565b945050602085013567ffffffffffffffff81111561230f5761230e611d92565b5b61231b87828801611fcf565b935050604061232c87828801611e73565b925050606061233d87828801611e73565b91505092959194509250565b600080604083850312156123605761235f611d8d565b5b600061236e85828601611e73565b925050602061237f85828601611e73565b9150509250929050565b600081519050919050565b600082825260208201905092915050565b6000819050602082019050919050565b6040820160008201516123cb6000850182611ca8565b5060208201516123de6020850182611be4565b50505050565b60006123f083836123b5565b60408301905092915050565b6000602082019050919050565b600061241482612389565b61241e8185612394565b9350612429836123a5565b8060005b8381101561245a57815161244188826123e4565b975061244c836123fc565b92505060018101905061242d565b5085935050505092915050565b600060208201905081810360008301526124818184612409565b905092915050565b7f4e487b7100000000000000000000000000000000000000000000000000000000600052602260045260246000fd5b600060028204905060018216806124d057607f821691505b6020821081036124e3576124e2612489565b5b50919050565b7f696e73756666696369656e742066756e647320746f2077697468647261770000600082015250565b600061251f601e83611df0565b915061252a826124e9565b602082019050919050565b6000602082019050818103600083015261254e81612512565b9050919050565b7f4e487b7100000000000000000000000000000000000000000000000000000000600052601160045260246000fd5b600061258f82611c9e565b915061259a83611c9e565b92508282039050818111156125b2576125b1612555565b5b92915050565b6125c181611bd2565b82525050565b6125d081611c9e565b82525050565b60006040820190506125eb60008301856125b8565b6125f860208301846125c7565b9392505050565b61260881611c83565b811461261357600080fd5b50565b600081519050612625816125ff565b92915050565b60006020828403121561264157612640611d8d565b5b600061264f84828501612616565b91505092915050565b7f43616e6e6f7420637265617465206d756c7469706c652077616c6c657473207760008201527f697468206f6e652077616c6c6574206164647265737300000000000000000000602082015250565b60006126b4603683611df0565b91506126bf82612658565b604082019050919050565b600060208201905081810360008301526126e3816126a7565b9050919050565b60006040820190506126ff60008301856125b8565b61270c60208301846125b8565b9392505050565b60008151905061272281611e5c565b92915050565b60006020828403121561273e5761273d611d8d565b5b600061274c84828501612713565b91505092915050565b7f4e6f20616c6c6f77616e636520746f207370656e642066756e6473206174207460008201527f6865206d6f6d656e740000000000000000000000000000000000000000000000602082015250565b60006127b1602983611df0565b91506127bc82612755565b604082019050919050565b600060208201905081810360008301526127e0816127a4565b9050919050565b60006060820190506127fc60008301866125b8565b61280960208301856125b8565b61281660408301846125c7565b949350505050565b600061282982611c9e565b915061283483611c9e565b925082820190508082111561284c5761284b612555565b5b92915050565b60008190508160005260206000209050919050565b60006020601f8301049050919050565b600082821b905092915050565b6000600883026128b47fffffffffffffffffffffffffffffffffffffffffffffffffffffffffffffffff82612877565b6128be8683612877565b95508019841693508086168417925050509392505050565b6000819050919050565b60006128fb6128f66128f184611c9e565b6128d6565b611c9e565b9050919050565b6000819050919050565b612915836128e0565b61292961292182612902565b848454612884565b825550505050565b600090565b61293e612931565b61294981848461290c565b505050565b5b8181101561296d57612962600082612936565b60018101905061294f565b5050565b601f8211156129b25761298381612852565b61298c84612867565b8101602085101561299b578190505b6129af6129a785612867565b83018261294e565b50505b505050565b600082821c905092915050565b60006129d5600019846008026129b7565b1980831691505092915050565b60006129ee83836129c4565b9150826002028217905092915050565b612a0782611bf3565b67ffffffffffffffff811115612a2057612a1f611ed2565b5b612a2a82546124b8565b612a35828285612971565b600060209050601f831160018114612a685760008415612a56578287015190505b612a6085826129e2565b865550612ac8565b601f198416612a7686612852565b60005b82811015612a9e57848901518255600182019150602085019450602081019050612a79565b86831015612abb5784890151612ab7601f8916826129c4565b8355505b6001600288020188555050505b505050505050565b7f4e6f7420612077616c6c65742061646d696e206163636f756e74000000000000600082015250565b6000612b06601a83611df0565b9150612b1182612ad0565b602082019050919050565b60006020820190508181036000830152612b3581612af9565b9050919050565b7f4e487b7100000000000000000000000000000000000000000000000000000000600052603260045260246000fdfea2646970667358221220e560ff487655c3041f3857ba06113d8781008f1446821e31b069740c42306ca064736f6c634300081c0033",
  "linkReferences": {},
  "deployedLinkReferences": {}
}